:020000040000FA
:0400000039EF00F0E4
:100018002880D8CF16F0E8CF17F0E0CF18F0E1CF5E
:1000280019F0E2CF1AF0D9CF1BF0DACF1CF09EBA44
:100038009DAA0BD0ABCF15F0060E1516D8A403D089
:10004800EBEC08F002D0CCEC09F01CC0DAFF1BC0C6
:10005800D9FF1AC0E2FF19C0E1FF18C0E0FF17C0BE
:0E006800E8FF16C0D8FF28901000A4EF09F0A2
:10100000000F0F0E1F0E0F0F001E1F0707071F1EDA
:10101000001C1C1C1F1F1C1C000707071F1F0707A5
:10102000001F1C1C1F1C1F1F00181C1C1E071F1E3E
:10103000001C1D1F1F1E1C1C001C1810181C0E0756
:1010400000000C500D10D8B404D00C500D10D8A4D2
:1010500004D00A50C2EC09F029D020EE04F00C5064
:10106000D9260D50DA22DE50DE10D8B416D020EE8C
:1010700004F00C50D9260D50DA2210EE02F00C507C
:10108000E1260D50E222DE50E65CE650800A126E48
:10109000DE50800A1258D8B009D020EE02F00C5071
:1010A000D9260D50DA22DE2A000EDD220AC00AF00F
:1010B0000B6A12009294979C89848E9C00D000D079
:1010C0008E8CB5EC09F06DEC09F061EC09F0000EC6
:1010D0001E6E3C0E1D6E2EEC09F0300EFFEC08F07B
:1010E000000E1E6E290E1D6E2EEC09F0300EFFEC68
:1010F00008F0340EE82EFED700D0300EFFEC08F0DA
:10110000380EFFEC08F00C0EFFEC08F0060EFFECBA
:1011100008F08FEC09F08EEC08F01200000E236E40
:101120002350080D010EF3241D6E100EF4201E6EC8
:101130002350AEEC08F0232A070E2364F1D7080EE3
:10114000046E010E84EC09F0000E236E2350C2ECF5
:1011500009F0232A070E2364F9D71200216E2150CB
:10116000080DF3503F0B4009FFEC08F0000E226E13
:1011700022501D241F6E000E1E20206E1FC0F6FF81
:1011800020C0F7FF000EF86E0800F5500FEC09F0D4
:10119000222A070E2264ECD71200086E0DD08FECC5
:1011A00009F01200000E046E010E84EC09F012002A
:1011B00008500FEC09F012000850066E076A07503D
:1011C000000AD8A4F5D706500A0AD8B4EBD7060A05
:1011D000D8B4E5D7EDD7AECF26F024C004F0010E89
:1011E00084EC09F026C013F0146A79EC09F0242A83
:1011F000100E2418D8A41200000E246E1200036EE4
:10120000000E48EC09F003503BEC09F0400E48ECAE
:1012100009F0000E48EC09F0C7EC09F01200036E6B
:10122000800E48EC09F003503BEC09F0C00E48EC8E
:1012300009F0000E48EC09F0C7EC09F01200240E8A
:10124000AC6E100EAF6E900EAB6ED08E9F9A9E9AC3
:101250009D8AF28EF28C949C948E120007D0530ECD
:10126000E82EFED700F01D06D8A01E061D501E1049
:10127000D8B41200F4D7026E8994400EADEC09F098
:10128000130EADEC09F00250ADEC09F089841200A8
:10129000026E8994400EADEC09F0120EADEC09F02F
:1012A0000250ADEC09F0898412009AEC09F01FECB1
:1012B00009F080BAFED72750BCEC09F080BAF9D704
:1012C000FDD78994400EADEC09F0010EADEC09F0AC
:1012D000000EADEC09F0898412008994400EADEC4B
:1012E00009F0000EADEC09F0000EADEC09F08984B8
:1012F000120013C00AF014C00BF0000E0C6E000EAA
:101300000D6E21EC08F01200056E0550D8B402D025
:10131000400E042604508009FFEC08F01200010E74
:10132000FFEC08F0050E046ED00EE82EFED7042E5A
:10133000FCD712005AEC08F0928A000E956E000E4F
:101340008C6E480E276E1200276A266A256A246A68
:1013500028902892000155EF09F0016E01C0C9FFE5
:101360009EA6FED79E96C9501200949A9496200E7F
:10137000C66EC78C9E9612001D6E1DC0ADFF9EB836
:101380001200FDD7096E0950CDEC08F012001F0EB7
:10139000E82EFED700D01200AB98AB888C68120004
:020000040020DA
:08000000FFFFFFFFFFFFFFFF00
:020000040030CA
:0E000000FF021F1EF38381FFFFC0FFE0FF40E1
:00000001FF
