:020000040000FA
:0400000026EF00F0F7
:100018000680D8CF01F0E8CF02F0E0CF03F0010E60
:100028009DA0000E9EA0000EE8A004D052EC00F0A7
:1000380061EC00F003C0E0FF02C0E8FF01C0D8FF98
:100048000690100068EF00F094940C0EBD6E070E39
:10005800CA6E9F0ECB6E140EBE6EBD9ABD9812006E
:10006800140EBE26052A070E0518D8A41200000E85
:10007800056E140EBE6E1200D08E9F909D80F28E7B
:10008800F28C100ECD6E4AEC00F012009E90CD90CE
:10009800CF0ECF6E2C0ECE6ECD8012009E90CD90DE
:1000A800CF0ECF6E2C0ECE6ECD8012006EEC00F00F
:1000B80028EC00F040EC00F0FFD7042E120034ECDE
:1000C80000F0320E046E1200056A069006920001D6
:1000D8005AEF00F00F0EC16E928A320E046E1200B3
:020000040020DA
:08000000FFFFFFFFFFFFFFFF00
:020000040030CA
:0E000000FF021F1EF38381FFFFC0FFE0FF40E1
:00000001FF
