:020000040000FA
:0400000043EF00F0DA
:060008005F8256ED0DF0D1
:100018005F80D8CF94F0E8CF95F0E0CF96F0E1CFAD
:1000280097F0E2CF98F0D9CF99F0DACF9AF0F6CFDF
:100038009BF0F7CF9CF0F8CF9DF0F5CF9EF09DBCDC
:100048009EAC05D09E9CC3CF68F09AEC0CF09EC085
:10005800F5FF9DC0F8FF9CC0F7FF9BC0F6FF9AC054
:10006800DAFF99C0D9FF98C0E2FF97C0E1FF96C0B8
:10007800E0FF95C0E8FF94C0D8FF5F9010008BEFB9
:020088000DF079
:10100000000F0F0E1F0E0F0F001E1F0707071F1EDA
:10101000001C1C1C1F1F1C1C000707071F1F0707A5
:10102000001F1C1C1F1C1F1F00181C1C1E071F1E3E
:10103000001C1D1F1F1E1C1C001C1810181C0E0756
:1010400000414420434F4E56455253494F4E0025D0
:0310500064000039
:1010540026C03EF027C03FF028C040F029C041F030
:101064002AC042F02BC043F02CC044F02DC045F000
:1010740045AE02D0010E01D0000E3C6E3D6A3C50DC
:101084003D10D8B410D0451E441E431E421E411EBE
:10109400401E3F1E3E6C000E3F224022412242224F
:1010A400432244224522000165AF669365BF05D003
:1010B400655108E16405D8B005D0000E396E010E03
:1010C400386E04D064C038F065C039F062C03AF0BC
:1010D40063C03BF03C503D10D8A402D066A503D0B9
:1010E4003A06D8A03B06000E476E1F0E466E000E51
:1010F400886F7CD04606D8A04706690E4624D96E70
:10110400000E4720DA6E3EC001F03FC002F040C03E
:1011140003F041C004F042C005F043C006F044C0EF
:1011240007F045C008F00A0E096E000E0A6E000EA4
:101134000B6E000E0C6E000E0D6E000E0E6E000E89
:101144000F6E000E106EBCEC0AF001C02EF002C04F
:101154002FF003C030F004C031F005C032F006C0F7
:1011640033F007C034F008C035F02EC013F030C09F
:1011740014F0D4EC0CF01350300FDF6E3806D8A006
:1011840039063A06D8A03B063EC001F03FC002F043
:1011940040C003F041C004F042C005F043C006F073
:1011A40044C007F045C008F00A0E096E000E0A6E2E
:1011B400000E0B6E000E0C6E000E0D6E000E0E6E09
:1011C400000E0F6E000E106E18EC0AF001C03EF017
:1011D40002C03FF003C040F004C041F005C042F03B
:1011E40006C043F007C044F008C045F047BE20D015
:1011F400475003E14604D8A01BD03E503F10401096
:1012040041104210431044104510D8A473D739BE7E
:1012140005D0395002E13804D8B06CD73BBE08D0B1
:101224003B5003E13A04D8A003D0000166B362D76F
:101234003C503D10D8A403D0000166A517D0460643
:10124400D8A047063C503D10D8A404D0000E376EF9
:101254002B0E03D0000E376E2D0E366E690E46240B
:10126400D96E000E4720DA6E36C0DFFF24C019F0B5
:1012740025C01AF0690E46241B6E000E47201C6E12
:101284003AC01DF03BC01EF04EEC0BF019C024F028
:101294001AC025F012004AC0D9FF4BC0DAFFDECFD6
:1012A400F6FFDDCFF7FF000EF86E0800F550250AB3
:1012B400D8A4A0D04AC0D9FF4BC0DAFFDE2A000E62
:1012C400DD22000E0001636F000E626F62C066F0E3
:1012D40063C067F0646965694AC0D9FF4BC0DAFF2F
:1012E400DECFF6FFDDCFF7FF000EF86E0800F550F5
:1012F400640AD8B40FD04AC0D9FF4BC0DAFFDECF9E
:10130400F6FFDDCFF7FF000EF86E0800F550690A0E
:10131400D8A43FD04AC0D9FF4BC0DAFFDE2A000E62
:10132400DD224CC0D9FF4DC0DAFFDFCF4EF0020EF4
:10133400DE26DFCF4FF0000EDD224EC0D9FF4FC0B6
:10134400DAFFDECF50F0DDCF51F0000E51BEFF0EBC
:10135400526E536E546E556E566E576E48C024F0DE
:1013640049C025F050C026F051C027F052C028F0E3
:1013740053C029F054C02AF055C02BF056C02CF0AD
:1013840057C02DF02AEC08F024C048F025C049F0DD
:1013940012004AC0D9FF4BC0DAFFDECFF6FFDDCF23
:1013A400F7FF000EF86E0800F550250AD8A416D0F1
:1013B4004AC0D9FF4BC0DAFFDE2A000EDD22000E40
:1013C4000A6E250E096E48C00BF049C00CF0D1EC32
:1013D4000BF0000E496E010E486E12004AC0D9FF90
:1013E4004BC0DAFFDE2A000EDD22000E496E000E2D
:1013F400486E12004AC0D9FF4BC0DAFFDECFF6FFB9
:10140400DDCFF7FF000EF86E0800F550096E0A6A8A
:1014140048C00BF049C00CF0D1EC0BF04AC0D9FF26
:101424004BC0DAFFDE2A000EDD22D3D7000E126E87
:1014340010AE12D0101E0F1E0E1E0D1E0C1E0B1E03
:101444000A1E096C000E0A220B220C220D220E2207
:101454000F221022010E126E08AE12D0081E071EB3
:10146400061E051E041E031E021E016C000E02222F
:10147400032204220522062207220822010E121A40
:1014840020EE13F0070EDE6AE806FDE209500A10AA
:101494000B100C100D100E100F101010D8B446D0F5
:1014A400010E116E0AD0D89009360A360B360C3666
:1014B4000D360E360F361036112A10AEF4D7D890EA
:1014C40013361436153616361736183619361A36B4
:1014D4000950015C0A5002580B5003580C50045830
:1014E4000D5005580E5006580F5007581050085804
:1014F400D8A011D00950015E0A50025A0B50035A69
:101504000C50045A0D50055A0E50065A0F50075AE3
:101514001050085A1380D89010320F320E320D3208
:101524000C320B320A320932112EC9D71250D8B4F8
:1015340010D01A1E191E181E171E161E151E141E54
:10154400136C000E142215221622172218221922B7
:101554001A2213C001F014C002F015C003F016C023
:1015640004F017C005F018C006F019C007F01AC03F
:1015740008F01200000E126E08AE12D0081E071EEC
:10158400061E051E041E031E021E016C000E02220E
:10159400032204220522062207220822010E126ECB
:1015A40010AE10D0101E0F1E0E1E0D1E0C1E0B1E94
:1015B4000A1E096C000E0A220B220C220D220E2296
:1015C4000F22102209500A100B100C100D100E10CF
:1015D4000F101010D8B43CD0010E116E0AD0D89060
:1015E40009360A360B360C360D360E360F361036E3
:1015F400112A10AEF4D70950015C0A5002580B505E
:1016040003580C5004580D5005580E5006580F50EE
:10161400075810500858D8A010D00950015E0A503D
:10162400025A0B50035A0C50045A0D50055A0E50CE
:10163400065A0F50075A1050085AD89010320F32D9
:101644000E320D320C320B320A320932112ED3D73C
:101654001250D8B410D0081E071E061E051E041E04
:10166400031E021E016C000E022203220422052224
:1016740006220722082201C001F002C002F003C0C2
:1016840003F004C004F005C005F006C006F007C06E
:1016940007F008C008F01200000166A10AD01BC0C0
:1016A40012F01CC013F019C014F01AC015F0B8ECF5
:1016B4000CF01EBE05D01DC022F01EC023F004D0C5
:1016C400000E236E000E226E000E216E000E206EA0
:1016D4000CD0000E0A6E200E096E19C00BF01AC051
:1016E4000CF0D1EC0BF0204A212A2250205C21502E
:1016F400800A1F6E2350800A1F58D8A0EAD7000121
:1017040066B10AD01BC012F01CC013F019C014F04B
:101714001AC015F0B8EC0CF01BC001F01CC002F0AC
:10172400EDEC0CF022500124196E235002201A6EA5
:1017340012009294979C89848E9C00D000D08E8C49
:10174400E3EC0DF0A3EC0DF097EC0DF0000E0001AE
:10175400A06F3C0E9F6F47EC0DF0300E27EC0DF0A0
:10176400000E0001A06F290E9F6F47EC0DF0300EA4
:1017740027EC0DF0340EE82EFED700D0300E27EC07
:101784000DF0380E27EC0DF00C0E27EC0DF0060EC4
:1017940027EC0DF0AFEC0DF034EC0CF012000B5014
:1017A4000C10D8B404D00B500C10D8A404D0095099
:1017B400F0EC0DF0120020EE04F00B50D9260C5082
:1017C400DA22DE50DE10D8B416D020EE04F00B502E
:1017D400D9260C50DA2210EE02F00B50E1260C5000
:1017E400E222DE50E65CE650800A116EDE50800A8A
:1017F4001158D8B0120020EE02F00B50D9260C502C
:10180400DA22DE2A000EDD2212005AC08AF05BC002
:101814008BF0000E0001616F000E606F13D058C092
:1018240048F059C049F08A0E4A6E000E4B6E5CC0F7
:101834004CF05DC04DF04DEC09F0485000016027BC
:10184400495061238AC0F6FF8BC0F7FF000EF86E83
:101854000800F5500009D8A4E2D760C058F061C070
:1018640059F01200000E0001A56FA551080D010EDC
:10187400F3249F6F100EF420A06FA55158EC0CF0C8
:101884000001A52B070EA565F0D7080E896F010E80
:1018940064EC0DF0000E0001A56FA551F0EC0DF005
:1018A4000001A52B070EA565F8D712000001A36F50
:1018B4000001A351080DF3503F0B400927EC0DF034
:1018C400000E0001A46FA4519F25A16F000EA0215A
:1018D400A26FA1C0F6FFA2C0F7FF000EF86E0800C9
:1018E400F55037EC0DF00001A42B070EA465EBD7DF
:1018F4001200076E0ED0AFEC0DF01200000E0001C6
:10190400896F010E64EC0DF01200075037EC0DF0F6
:1019140012000750056E066A0650000AD8A4F5D7CF
:1019240005500A0AD8B4EAD7060AD8B4E4D7EDD7E2
:10193400000E0001896F000E64EC0DF0410E0001F1
:101944008C6F100E8D6F02EC0DF0000E0001896F8C
:10195400010E64EC0DF04F0E00018C6F100E8D6FB4
:1019640068C08EF08F6B02EC0DF01200000E186E42
:10197400000E176E0BD016C009F00A6A14C00BF0E3
:1019840015C00CF0D1EC0BF0174A182A175012248A
:10199400D96E18501320DA6EDF50166E1650D8B474
:1019A4001200E9D714BE05D0145010E11304D8B0C6
:1019B4000DD013C015F014C016F0151E161E154ACE
:1019C400162A15C013F016C014F0120013C013F039
:1019D40014C014F0120001C003F002C004F002D0DD
:1019E400014A022A01C0D9FF02C0DAFFDF50D8A49D
:1019F400F7D70350015C016E04500258026E1200C6
:101A04008E0E0001926F000E936F000E586E000E42
:101A1400596E8CC05AF08DC05BF0920E5C6E000E55
:101A24005D6E07EC0CF012009280010EC26E0E0E79
:101A3400C16E810EC06E640E5E6ED08E9F9C9E9CA5
:101A44009D8CF28EF28CC2821200036E000E7EEC2C
:101A54000DF0035071EC0DF0400E7EEC0DF0000E15
:101A64007EEC0DF0F5EC0DF01200036E800E7EECB2
:101A74000DF0035071EC0DF0C00E7EEC0DF0000E75
:101A84007EEC0DF0F5EC0DF01200000108D0530EC1
:101A9400E82EFED700F000019F07D8A0A0079F51B1
:101AA400A011D8B41200F3D70600010EF2AA000E5A
:101AB400F2A4000EE8A004D0D4EC0DF0EAEC0DF092
:101AC4005F921100046E0450D8B403D0400E00019C
:101AD400892700018951800927EC0DF01200026E5C
:101AE4008994400ECCEC0DF0130ECCEC0DF00250AA
:101AF400CCEC0DF089841200026E8994400ECCEC7B
:101B04000DF0120ECCEC0DF00250CCEC0DF08984EB
:101B1400120000EE60F0290EEE6AE806FDE15E6A4E
:101B24005F905F920001DCEF0DF08994400ECCECE5
:101B34000DF0010ECCEC0DF0000ECCEC0DF0898410
:101B440012008994400ECCEC0DF0000ECCEC0DF09C
:101B5400000ECCEC0DF089841200010E27EC0DF080
:101B6400050E046ED00EE82EFED7042EFCD712000C
:101B7400D08EF194F28AF28EF28C000ED56EC4EC03
:101B84000DF01200F294D59ECF0ED76E2C0ED66EA9
:101B9400D58E1200016E01C0C9FF9EA6FED79E9687
:101BA400C9501200F294D59ECF0ED76E2C0ED66E6D
:101BB400D58E12009BEC0BF016EC0DF0BAEC0DF088
:101BC400FFD7949A9496200EC66EC78C9E961200E8
:101BD4005E2E1200C282640E5E6E1200086E085001
:101BE4007BEC0CF012001F0EE82EFED700D0120082
:020000040020DA
:08000000FFFFFFFFFFFFFFFF00
:020000040030CA
:0E000000FF021F1EF38381FFFFC0FFE0FF40E1
:00000001FF
