:020000040000FA
:040000002EEF00F0EF
:100018001C80D8CF14F0E8CF15F0E0CF16F0D9CF78
:1000280017F0DACF18F0010EF2AA000EF2A4000EB3
:10003800E8A004D078EC08F035EC08F018C0DAFF36
:1000480017C0D9FF16C0E0FF15C0E8FF14C0D8FFDD
:080058001C90100057EF08F0A6
:101000000080403C24243C020101023C24243C405A
:101010008000000E1B6E010E1B24F66EF76A100E88
:10102000F722010E1B24D96EDA6A000EDA220800BC
:10103000F5CFDFFF1B50196E1A6A080E1926000E35
:101040001A22010E1924F66E100E1A20F76E090EE0
:101050001B24D96EDA6A000EDA220800F5CFDFFF12
:101060001B2A070E1B64D7D71200000E8A6E090ECA
:101070001124D96EDA6A000EDA22DF508B6E010E6F
:101080001124D96EDA6A000EDA22DF508C6E11C09C
:1010900012F0010E136E122A02D0D8901336122EBF
:1010A000FCD713508A6E112A070E1116120000EE9B
:1010B00001F0110EEE6AE806FDE11C901C92000E94
:1010C000F86E100EF76E000180EF08F0D08EF194EC
:1010D000F28AF28EF28C000ED56E70EC08F01200DF
:1010E000F294D59EFB0ED76E1E0ED66ED58E1200D4
:1010F000F294D59EFB0ED76E1E0ED66ED58E1200C4
:1011000087EC08F009EC08F066EC08F0FFD7000E59
:0C111000936E000E946E000E956E12009F
:020000040020DA
:08000000FFFFFFFFFFFFFFFF00
:020000040030CA
:0E000000FF021F1EF38381FFFFC0FFE0FF40E1
:00000001FF
