:020000040000FA
:0400000026EF00F0F7
:100018000680D8CF01F0E8CF02F0E0CF03F0010E60
:100028009DA0000E9EA0000EE8A004D059EC08F098
:100038006DEC08F003C0E0FF02C0E8FF01C0D8FF84
:080048000690100061EF08F0C2
:10100000000F0F0E1F0E0F0F001E1F0707071F1EDA
:10101000001C1C1C1F1F1C1C000707071F1F0707A5
:10102000001F1C1C1F1C1F1F00181C1C1E071F1E3E
:10103000001C1D1F1F1E1C1C001C1810181C0E0756
:10104000000048EC08F03EEC08F0800E8C6E67EC77
:1010500008F067EC08F067EC08F067EC08F0000EA9
:101060008C6E67EC08F0800E8C6E67EC08F067EC15
:1010700008F0000E8C6E67EC08F0E7D7D08E9F90DA
:101080009D80F28EF28C100ECD6E51EC08F01200A5
:101090000F0EC16E000E956E000E8C6E320E046E39
:1010A00012009E90CD90CF0ECF6E2C0ECE6ECD80C6
:1010B00012009E90CD90CF0ECF6E2C0ECE6ECD80B6
:1010C0001200056A06900692000121EF08F0320E28
:1010D000046E0450D8B41200FCD70450D8B41200E7
:0410E00004061200F0
:020000040020DA
:08000000FFFFFFFFFFFFFFFF00
:020000040030CA
:0E000000FF021F1EF38381FFFFC0FFE0FF40E1
:00000001FF
