:020000040000FA
:0400000026EF00F0F7
:100018000580D8CF01F0E8CF02F0E0CF03F0010E61
:10002800F2AA000EF2A4000EE8A004D043EC00F0FF
:100038004BEC00F003C0E0FF02C0E8FF01C0D8FFAE
:100048000590100051EF00F0D08EF194F28AF28EF4
:10005800F28C000ED56E3BEC00F012000F0EC16E54
:10006800000E956E000E8C6E320E046E1200F29425
:10007800D59ECF0ED76E2C0ED66ED58E1200F2946A
:10008800D59ECF0ED76E2C0ED66ED58E1200042EAE
:1000980012008C2A320E046E12000590059200019F
:0E00A80056EF00F032EC00F028EC00F0FFD72D
:020000040020DA
:08000000FFFFFFFFFFFFFFFF00
:020000040030CA
:0E000000FF021F1EF38381FFFFC0FFE0FF40E1
:00000001FF
